{
  "_format": "hh-sol-artifact-1",
  "contractName": "WavePortal",
  "sourceName": "contracts/WavePortal.sol",
  "abi": [
    {
      "inputs": [],
      "stateMutability": "nonpayable",
      "type": "constructor"
    },
    {
      "anonymous": false,
      "inputs": [
        {
          "indexed": true,
          "internalType": "address",
          "name": "from",
          "type": "address"
        },
        {
          "indexed": false,
          "internalType": "uint256",
          "name": "timestamp",
          "type": "uint256"
        },
        {
          "indexed": false,
          "internalType": "string",
          "name": "message",
          "type": "string"
        }
      ],
      "name": "NewWave",
      "type": "event"
    },
    {
      "inputs": [],
      "name": "getAllWaves",
      "outputs": [
        {
          "components": [
            {
              "internalType": "address",
              "name": "waver",
              "type": "address"
            },
            {
              "internalType": "string",
              "name": "message",
              "type": "string"
            },
            {
              "internalType": "uint256",
              "name": "timestamp",
              "type": "uint256"
            }
          ],
          "internalType": "struct WavePortal.Wave[]",
          "name": "",
          "type": "tuple[]"
        }
      ],
      "stateMutability": "view",
      "type": "function"
    },
    {
      "inputs": [],
      "name": "getTotalWaves",
      "outputs": [
        {
          "internalType": "uint256",
          "name": "",
          "type": "uint256"
        }
      ],
      "stateMutability": "view",
      "type": "function"
    },
    {
      "inputs": [],
      "name": "getUserWaves",
      "outputs": [
        {
          "internalType": "uint256",
          "name": "",
          "type": "uint256"
        }
      ],
      "stateMutability": "view",
      "type": "function"
    },
    {
      "inputs": [
        {
          "internalType": "string",
          "name": "_message",
          "type": "string"
        }
      ],
      "name": "wave",
      "outputs": [],
      "stateMutability": "nonpayable",
      "type": "function"
    }
  ],
  "bytecode": "0x60806040523480156200001157600080fd5b506200005d6040518060400160405280601981526020017f4920414d20534d41525420434f4e54524143542e20504f472e000000000000008152506200006360201b620004771760201c565b620001f7565b62000103816040516024016200007a919062000170565b6040516020818303038152906040527f41304fac000000000000000000000000000000000000000000000000000000007bffffffffffffffffffffffffffffffffffffffffffffffffffffffff19166020820180517bffffffffffffffffffffffffffffffffffffffffffffffffffffffff83818316178352505050506200010660201b60201c565b50565b60008151905060006a636f6e736f6c652e6c6f679050602083016000808483855afa5050505050565b60006200013c8262000194565b6200014881856200019f565b93506200015a818560208601620001b0565b6200016581620001e6565b840191505092915050565b600060208201905081810360008301526200018c81846200012f565b905092915050565b600081519050919050565b600082825260208201905092915050565b60005b83811015620001d0578082015181840152602081019050620001b3565b83811115620001e0576000848401525b50505050565b6000601f19601f8301169050919050565b610cfa80620002076000396000f3fe608060405234801561001057600080fd5b506004361061004c5760003560e01c8063449d46c0146100515780634ad88b381461006d5780639a2cdc081461008b578063bd43a908146100a9575b600080fd5b61006b6004803603810190610066919061077c565b6100c7565b005b610075610294565b60405161008291906109e8565b60405180910390f35b6100936102db565b6040516100a091906109e8565b60405180910390f35b6100b1610326565b6040516100be9190610944565b60405180910390f35b60016000808282546100d99190610aef565b9250508190555060018060003373ffffffffffffffffffffffffffffffffffffffff1673ffffffffffffffffffffffffffffffffffffffff168152602001908152602001600020600082825461012f9190610aef565b925050819055506101756040518060400160405280600d81526020017f257320686173207761766564210000000000000000000000000000000000000081525033610510565b600260405180606001604052803373ffffffffffffffffffffffffffffffffffffffff16815260200183815260200142815250908060018154018082558091505060019003906000526020600020906003020160009091909190915060008201518160000160006101000a81548173ffffffffffffffffffffffffffffffffffffffff021916908373ffffffffffffffffffffffffffffffffffffffff1602179055506020820151816001019080519060200190610234929190610671565b506040820151816002015550503373ffffffffffffffffffffffffffffffffffffffff167f5f7e16dc676677766a70e9c5628aa6c54ddb8b6e5188e2ae1e1f17f1ffbea7164283604051610289929190610a03565b60405180910390a250565b6000600160003373ffffffffffffffffffffffffffffffffffffffff1673ffffffffffffffffffffffffffffffffffffffff16815260200190815260200160002054905090565b600061031e6040518060400160405280601781526020017f5765206861766520256420746f74616c207761766573210000000000000000008152506000546105ac565b600054905090565b60606002805480602002602001604051908101604052809291908181526020016000905b8282101561046e57838290600052602060002090600302016040518060600160405290816000820160009054906101000a900473ffffffffffffffffffffffffffffffffffffffff1673ffffffffffffffffffffffffffffffffffffffff1673ffffffffffffffffffffffffffffffffffffffff1681526020016001820180546103d390610bc3565b80601f01602080910402602001604051908101604052809291908181526020018280546103ff90610bc3565b801561044c5780601f106104215761010080835404028352916020019161044c565b820191906000526020600020905b81548152906001019060200180831161042f57829003601f168201915b505050505081526020016002820154815250508152602001906001019061034a565b50505050905090565b61050d8160405160240161048b9190610966565b6040516020818303038152906040527f41304fac000000000000000000000000000000000000000000000000000000007bffffffffffffffffffffffffffffffffffffffffffffffffffffffff19166020820180517bffffffffffffffffffffffffffffffffffffffffffffffffffffffff8381831617835250505050610648565b50565b6105a88282604051602401610526929190610988565b6040516020818303038152906040527f319af333000000000000000000000000000000000000000000000000000000007bffffffffffffffffffffffffffffffffffffffffffffffffffffffff19166020820180517bffffffffffffffffffffffffffffffffffffffffffffffffffffffff8381831617835250505050610648565b5050565b61064482826040516024016105c29291906109b8565b6040516020818303038152906040527f9710a9d0000000000000000000000000000000000000000000000000000000007bffffffffffffffffffffffffffffffffffffffffffffffffffffffff19166020820180517bffffffffffffffffffffffffffffffffffffffffffffffffffffffff8381831617835250505050610648565b5050565b60008151905060006a636f6e736f6c652e6c6f679050602083016000808483855afa5050505050565b82805461067d90610bc3565b90600052602060002090601f01602090048101928261069f57600085556106e6565b82601f106106b857805160ff19168380011785556106e6565b828001600101855582156106e6579182015b828111156106e55782518255916020019190600101906106ca565b5b5090506106f391906106f7565b5090565b5b808211156107105760008160009055506001016106f8565b5090565b600061072761072284610a58565b610a33565b90508281526020810184848401111561073f57600080fd5b61074a848285610b81565b509392505050565b600082601f83011261076357600080fd5b8135610773848260208601610714565b91505092915050565b60006020828403121561078e57600080fd5b600082013567ffffffffffffffff8111156107a857600080fd5b6107b484828501610752565b91505092915050565b60006107c983836108d6565b905092915050565b6107da81610b45565b82525050565b6107e981610b45565b82525050565b60006107fa82610a99565b6108048185610abc565b93508360208202850161081685610a89565b8060005b85811015610852578484038952815161083385826107bd565b945061083e83610aaf565b925060208a0199505060018101905061081a565b50829750879550505050505092915050565b600061086f82610aa4565b6108798185610acd565b9350610889818560208601610b90565b61089281610cb3565b840191505092915050565b60006108a882610aa4565b6108b28185610ade565b93506108c2818560208601610b90565b6108cb81610cb3565b840191505092915050565b60006060830160008301516108ee60008601826107d1565b50602083015184820360208601526109068282610864565b915050604083015161091b6040860182610926565b508091505092915050565b61092f81610b77565b82525050565b61093e81610b77565b82525050565b6000602082019050818103600083015261095e81846107ef565b905092915050565b60006020820190508181036000830152610980818461089d565b905092915050565b600060408201905081810360008301526109a2818561089d565b90506109b160208301846107e0565b9392505050565b600060408201905081810360008301526109d2818561089d565b90506109e16020830184610935565b9392505050565b60006020820190506109fd6000830184610935565b92915050565b6000604082019050610a186000830185610935565b8181036020830152610a2a818461089d565b90509392505050565b6000610a3d610a4e565b9050610a498282610bf5565b919050565b6000604051905090565b600067ffffffffffffffff821115610a7357610a72610c84565b5b610a7c82610cb3565b9050602081019050919050565b6000819050602082019050919050565b600081519050919050565b600081519050919050565b6000602082019050919050565b600082825260208201905092915050565b600082825260208201905092915050565b600082825260208201905092915050565b6000610afa82610b77565b9150610b0583610b77565b9250827fffffffffffffffffffffffffffffffffffffffffffffffffffffffffffffffff03821115610b3a57610b39610c26565b5b828201905092915050565b6000610b5082610b57565b9050919050565b600073ffffffffffffffffffffffffffffffffffffffff82169050919050565b6000819050919050565b82818337600083830152505050565b60005b83811015610bae578082015181840152602081019050610b93565b83811115610bbd576000848401525b50505050565b60006002820490506001821680610bdb57607f821691505b60208210811415610bef57610bee610c55565b5b50919050565b610bfe82610cb3565b810181811067ffffffffffffffff82111715610c1d57610c1c610c84565b5b80604052505050565b7f4e487b7100000000000000000000000000000000000000000000000000000000600052601160045260246000fd5b7f4e487b7100000000000000000000000000000000000000000000000000000000600052602260045260246000fd5b7f4e487b7100000000000000000000000000000000000000000000000000000000600052604160045260246000fd5b6000601f19601f830116905091905056fea26469706673582212205e4a1658dbf093d902a4fb72da44c47522c4c0e3337332792b5c0b7963e704c864736f6c63430008040033",
  "linkReferences": {},
  "deployedLinkReferences": {}
}