{
  "_format": "hh-sol-artifact-1",
  "contractName": "WavePortal",
  "sourceName": "contracts/WavePortal.sol",
  "abi": [
    {
      "inputs": [],
      "stateMutability": "payable",
      "type": "constructor"
    },
    {
      "anonymous": false,
      "inputs": [
        {
          "indexed": true,
          "internalType": "address",
          "name": "from",
          "type": "address"
        },
        {
          "indexed": false,
          "internalType": "uint256",
          "name": "timestamp",
          "type": "uint256"
        },
        {
          "indexed": false,
          "internalType": "string",
          "name": "message",
          "type": "string"
        },
        {
          "indexed": false,
          "internalType": "bool",
          "name": "winner",
          "type": "bool"
        }
      ],
      "name": "NewWave",
      "type": "event"
    },
    {
      "inputs": [],
      "name": "getAllWaves",
      "outputs": [
        {
          "components": [
            {
              "internalType": "address",
              "name": "waver",
              "type": "address"
            },
            {
              "internalType": "string",
              "name": "message",
              "type": "string"
            },
            {
              "internalType": "uint256",
              "name": "timestamp",
              "type": "uint256"
            },
            {
              "internalType": "bool",
              "name": "winner",
              "type": "bool"
            }
          ],
          "internalType": "struct WavePortal.Wave[]",
          "name": "",
          "type": "tuple[]"
        }
      ],
      "stateMutability": "view",
      "type": "function"
    },
    {
      "inputs": [],
      "name": "getTotalWaves",
      "outputs": [
        {
          "internalType": "uint256",
          "name": "",
          "type": "uint256"
        }
      ],
      "stateMutability": "view",
      "type": "function"
    },
    {
      "inputs": [],
      "name": "getUserWaves",
      "outputs": [
        {
          "internalType": "uint256",
          "name": "",
          "type": "uint256"
        }
      ],
      "stateMutability": "view",
      "type": "function"
    },
    {
      "inputs": [
        {
          "internalType": "address",
          "name": "",
          "type": "address"
        }
      ],
      "name": "lastWavedAt",
      "outputs": [
        {
          "internalType": "uint256",
          "name": "",
          "type": "uint256"
        }
      ],
      "stateMutability": "view",
      "type": "function"
    },
    {
      "inputs": [
        {
          "internalType": "string",
          "name": "_message",
          "type": "string"
        }
      ],
      "name": "wave",
      "outputs": [],
      "stateMutability": "nonpayable",
      "type": "function"
    }
  ],
  "bytecode": "0x60806040526200004f6040518060400160405280601981526020017f4920414d20534d41525420434f4e54524143542e20504f472e000000000000008152506200005560201b6200079e1760201c565b620001e9565b620000f5816040516024016200006c919062000162565b6040516020818303038152906040527f41304fac000000000000000000000000000000000000000000000000000000007bffffffffffffffffffffffffffffffffffffffffffffffffffffffff19166020820180517bffffffffffffffffffffffffffffffffffffffffffffffffffffffff8381831617835250505050620000f860201b60201c565b50565b60008151905060006a636f6e736f6c652e6c6f679050602083016000808483855afa5050505050565b60006200012e8262000186565b6200013a818562000191565b93506200014c818560208601620001a2565b6200015781620001d8565b840191505092915050565b600060208201905081810360008301526200017e818462000121565b905092915050565b600081519050919050565b600082825260208201905092915050565b60005b83811015620001c2578082015181840152602081019050620001a5565b83811115620001d2576000848401525b50505050565b6000601f19601f8301169050919050565b6112f780620001f96000396000f3fe608060405234801561001057600080fd5b50600436106100575760003560e01c8063449d46c01461005c5780634ad88b38146100785780639a2cdc0814610096578063a42a4663146100b4578063bd43a908146100e4575b600080fd5b61007660048036038101906100719190610ae1565b610102565b005b610080610588565b60405161008d9190610e7f565b60405180910390f35b61009e6105cf565b6040516100ab9190610e7f565b60405180910390f35b6100ce60048036038101906100c99190610ab8565b61061a565b6040516100db9190610e7f565b60405180910390f35b6100ec610632565b6040516100f99190610d7b565b60405180910390f35b42601e600260003373ffffffffffffffffffffffffffffffffffffffff1673ffffffffffffffffffffffffffffffffffffffff1681526020019081526020016000205461014f9190610f9f565b1061018f576040517f08c379a000000000000000000000000000000000000000000000000000000000815260040161018690610e5f565b60405180910390fd5b42600260003373ffffffffffffffffffffffffffffffffffffffff1673ffffffffffffffffffffffffffffffffffffffff1681526020019081526020016000208190555060016000808282546101e59190610f9f565b9250508190555060018060003373ffffffffffffffffffffffffffffffffffffffff1673ffffffffffffffffffffffffffffffffffffffff168152602001908152602001600020600082825461023b9190610f9f565b925050819055506102816040518060400160405280600d81526020017f257320686173207761766564210000000000000000000000000000000000000081525033610837565b6000606460035442446102949190610f9f565b61029e9190610f9f565b6102a891906110e2565b90506102e96040518060400160405280601681526020017f52616e646f6d20232067656e6572617465643a20257300000000000000000000815250826108d3565b806003819055506032811015610435576103386040518060400160405280600781526020017f257320776f6e210000000000000000000000000000000000000000000000000081525033610837565b6000655af3107a4000905047811115610386576040517f08c379a000000000000000000000000000000000000000000000000000000000815260040161037d90610e1f565b60405180910390fd5b60003373ffffffffffffffffffffffffffffffffffffffff16826040516103ac90610d66565b60006040518083038185875af1925050503d80600081146103e9576040519150601f19603f3d011682016040523d82523d6000602084013e6103ee565b606091505b5050905080610432576040517f08c379a000000000000000000000000000000000000000000000000000000000815260040161042990610e3f565b60405180910390fd5b50505b6000603282109050600460405180608001604052803373ffffffffffffffffffffffffffffffffffffffff168152602001858152602001428152602001831515815250908060018154018082558091505060019003906000526020600020906004020160009091909190915060008201518160000160006101000a81548173ffffffffffffffffffffffffffffffffffffffff021916908373ffffffffffffffffffffffffffffffffffffffff1602179055506020820151816001019080519060200190610504929190610998565b506040820151816002015560608201518160030160006101000a81548160ff02191690831515021790555050503373ffffffffffffffffffffffffffffffffffffffff167f6d1607feb02544462392cd79bc9fc3cea2a1dd50600d5b503009b84ae27748ca42858460405161057b93929190610e9a565b60405180910390a2505050565b6000600160003373ffffffffffffffffffffffffffffffffffffffff1673ffffffffffffffffffffffffffffffffffffffff16815260200190815260200160002054905090565b60006106126040518060400160405280601781526020017f5765206861766520256420746f74616c207761766573210000000000000000008152506000546108d3565b600054905090565b60026020528060005260406000206000915090505481565b60606004805480602002602001604051908101604052809291908181526020016000905b8282101561079557838290600052602060002090600402016040518060800160405290816000820160009054906101000a900473ffffffffffffffffffffffffffffffffffffffff1673ffffffffffffffffffffffffffffffffffffffff1673ffffffffffffffffffffffffffffffffffffffff1681526020016001820180546106df9061107f565b80601f016020809104026020016040519081016040528092919081815260200182805461070b9061107f565b80156107585780601f1061072d57610100808354040283529160200191610758565b820191906000526020600020905b81548152906001019060200180831161073b57829003601f168201915b50505050508152602001600282015481526020016003820160009054906101000a900460ff16151515158152505081526020019060010190610656565b50505050905090565b610834816040516024016107b29190610d9d565b6040516020818303038152906040527f41304fac000000000000000000000000000000000000000000000000000000007bffffffffffffffffffffffffffffffffffffffffffffffffffffffff19166020820180517bffffffffffffffffffffffffffffffffffffffffffffffffffffffff838183161783525050505061096f565b50565b6108cf828260405160240161084d929190610dbf565b6040516020818303038152906040527f319af333000000000000000000000000000000000000000000000000000000007bffffffffffffffffffffffffffffffffffffffffffffffffffffffff19166020820180517bffffffffffffffffffffffffffffffffffffffffffffffffffffffff838183161783525050505061096f565b5050565b61096b82826040516024016108e9929190610def565b6040516020818303038152906040527f9710a9d0000000000000000000000000000000000000000000000000000000007bffffffffffffffffffffffffffffffffffffffffffffffffffffffff19166020820180517bffffffffffffffffffffffffffffffffffffffffffffffffffffffff838183161783525050505061096f565b5050565b60008151905060006a636f6e736f6c652e6c6f679050602083016000808483855afa5050505050565b8280546109a49061107f565b90600052602060002090601f0160209004810192826109c65760008555610a0d565b82601f106109df57805160ff1916838001178555610a0d565b82800160010185558215610a0d579182015b82811115610a0c5782518255916020019190600101906109f1565b5b509050610a1a9190610a1e565b5090565b5b80821115610a37576000816000905550600101610a1f565b5090565b6000610a4e610a4984610efd565b610ed8565b905082815260208101848484011115610a6657600080fd5b610a7184828561103d565b509392505050565b600081359050610a88816112aa565b92915050565b600082601f830112610a9f57600080fd5b8135610aaf848260208601610a3b565b91505092915050565b600060208284031215610aca57600080fd5b6000610ad884828501610a79565b91505092915050565b600060208284031215610af357600080fd5b600082013567ffffffffffffffff811115610b0d57600080fd5b610b1984828501610a8e565b91505092915050565b6000610b2e8383610ce5565b905092915050565b610b3f81610ff5565b82525050565b610b4e81610ff5565b82525050565b6000610b5f82610f3e565b610b698185610f61565b935083602082028501610b7b85610f2e565b8060005b85811015610bb75784840389528151610b988582610b22565b9450610ba383610f54565b925060208a01995050600181019050610b7f565b50829750879550505050505092915050565b610bd281611007565b82525050565b610be181611007565b82525050565b6000610bf282610f49565b610bfc8185610f7d565b9350610c0c81856020860161104c565b610c15816111cf565b840191505092915050565b6000610c2b82610f49565b610c358185610f8e565b9350610c4581856020860161104c565b610c4e816111cf565b840191505092915050565b6000610c66603483610f8e565b9150610c71826111e0565b604082019050919050565b6000610c89602783610f8e565b9150610c948261122f565b604082019050919050565b6000610cac600083610f72565b9150610cb78261127e565b600082019050919050565b6000610ccf601c83610f8e565b9150610cda82611281565b602082019050919050565b6000608083016000830151610cfd6000860182610b36565b5060208301518482036020860152610d158282610be7565b9150506040830151610d2a6040860182610d48565b506060830151610d3d6060860182610bc9565b508091505092915050565b610d5181611033565b82525050565b610d6081611033565b82525050565b6000610d7182610c9f565b9150819050919050565b60006020820190508181036000830152610d958184610b54565b905092915050565b60006020820190508181036000830152610db78184610c20565b905092915050565b60006040820190508181036000830152610dd98185610c20565b9050610de86020830184610b45565b9392505050565b60006040820190508181036000830152610e098185610c20565b9050610e186020830184610d57565b9392505050565b60006020820190508181036000830152610e3881610c59565b9050919050565b60006020820190508181036000830152610e5881610c7c565b9050919050565b60006020820190508181036000830152610e7881610cc2565b9050919050565b6000602082019050610e946000830184610d57565b92915050565b6000606082019050610eaf6000830186610d57565b8181036020830152610ec18185610c20565b9050610ed06040830184610bd8565b949350505050565b6000610ee2610ef3565b9050610eee82826110b1565b919050565b6000604051905090565b600067ffffffffffffffff821115610f1857610f176111a0565b5b610f21826111cf565b9050602081019050919050565b6000819050602082019050919050565b600081519050919050565b600081519050919050565b6000602082019050919050565b600082825260208201905092915050565b600081905092915050565b600082825260208201905092915050565b600082825260208201905092915050565b6000610faa82611033565b9150610fb583611033565b9250827fffffffffffffffffffffffffffffffffffffffffffffffffffffffffffffffff03821115610fea57610fe9611113565b5b828201905092915050565b600061100082611013565b9050919050565b60008115159050919050565b600073ffffffffffffffffffffffffffffffffffffffff82169050919050565b6000819050919050565b82818337600083830152505050565b60005b8381101561106a57808201518184015260208101905061104f565b83811115611079576000848401525b50505050565b6000600282049050600182168061109757607f821691505b602082108114156110ab576110aa611171565b5b50919050565b6110ba826111cf565b810181811067ffffffffffffffff821117156110d9576110d86111a0565b5b80604052505050565b60006110ed82611033565b91506110f883611033565b92508261110857611107611142565b5b828206905092915050565b7f4e487b7100000000000000000000000000000000000000000000000000000000600052601160045260246000fd5b7f4e487b7100000000000000000000000000000000000000000000000000000000600052601260045260246000fd5b7f4e487b7100000000000000000000000000000000000000000000000000000000600052602260045260246000fd5b7f4e487b7100000000000000000000000000000000000000000000000000000000600052604160045260246000fd5b6000601f19601f8301169050919050565b7f547279696e6720746f207769746864726177206d6f7265206d6f6e657920746860008201527f616e2074686520636f6e7472616374206861732e000000000000000000000000602082015250565b7f4661696c656420746f207769746864726177206d6f6e65792066726f6d20636f60008201527f6e74726163742e00000000000000000000000000000000000000000000000000602082015250565b50565b7f5761697420333073206265666f726520776176696e6720616761696e00000000600082015250565b6112b381610ff5565b81146112be57600080fd5b5056fea26469706673582212205915336dbc6e84d6929677fd1bebc0987cfc725dcc87fcb8795dab97c0ede9b264736f6c63430008040033",
  "linkReferences": {},
  "deployedLinkReferences": {}
}