{
  "_format": "hh-sol-artifact-1",
  "contractName": "WavePortal",
  "sourceName": "contracts/WavePortal.sol",
  "abi": [
    {
      "inputs": [],
      "stateMutability": "nonpayable",
      "type": "constructor"
    },
    {
      "inputs": [],
      "name": "getTotalWaves",
      "outputs": [
        {
          "internalType": "uint256",
          "name": "",
          "type": "uint256"
        }
      ],
      "stateMutability": "view",
      "type": "function"
    },
    {
      "inputs": [],
      "name": "getUserWaves",
      "outputs": [
        {
          "internalType": "uint256",
          "name": "",
          "type": "uint256"
        }
      ],
      "stateMutability": "view",
      "type": "function"
    },
    {
      "inputs": [],
      "name": "wave",
      "outputs": [],
      "stateMutability": "nonpayable",
      "type": "function"
    }
  ],
  "bytecode": "0x608060405234801561001057600080fd5b5061003c60405180606001604052806024815260200161094c6024913961004160201b6102301760201c565b6101c4565b6100dd816040516024016100559190610142565b6040516020818303038152906040527f41304fac000000000000000000000000000000000000000000000000000000007bffffffffffffffffffffffffffffffffffffffffffffffffffffffff19166020820180517bffffffffffffffffffffffffffffffffffffffffffffffffffffffff83818316178352505050506100e060201b60201c565b50565b60008151905060006a636f6e736f6c652e6c6f679050602083016000808483855afa5050505050565b600061011482610164565b61011e818561016f565b935061012e818560208601610180565b610137816101b3565b840191505092915050565b6000602082019050818103600083015261015c8184610109565b905092915050565b600081519050919050565b600082825260208201905092915050565b60005b8381101561019e578082015181840152602081019050610183565b838111156101ad576000848401525b50505050565b6000601f19601f8301169050919050565b610779806101d36000396000f3fe608060405234801561001057600080fd5b50600436106100415760003560e01c80634ad88b38146100465780636fe15b44146100645780639a2cdc081461006e575b600080fd5b61004e61008c565b60405161005b91906105e0565b60405180910390f35b61006c610135565b005b6100766101e5565b60405161008391906105e0565b60405180910390f35b60006100f060405180606001604052806027815260200161071d6027913933600160003373ffffffffffffffffffffffffffffffffffffffff1673ffffffffffffffffffffffffffffffffffffffff168152602001908152602001600020546102c9565b600160003373ffffffffffffffffffffffffffffffffffffffff1673ffffffffffffffffffffffffffffffffffffffff16815260200190815260200160002054905090565b60016000808282546101479190610617565b9250508190555060018060003373ffffffffffffffffffffffffffffffffffffffff1673ffffffffffffffffffffffffffffffffffffffff168152602001908152602001600020600082825461019d9190610617565b925050819055506101e36040518060400160405280601681526020017f1b5b33326d25731b5b306d20686173207761766564210000000000000000000081525033610368565b565b60006102286040518060400160405280602081526020017f57652068617665201b5b33316d25641b5b306d20746f74616c20776176657321815250600054610404565b600054905090565b6102c6816040516024016102449190610520565b6040516020818303038152906040527f41304fac000000000000000000000000000000000000000000000000000000007bffffffffffffffffffffffffffffffffffffffffffffffffffffffff19166020820180517bffffffffffffffffffffffffffffffffffffffffffffffffffffffff83818316178352505050506104a0565b50565b6103638383836040516024016102e193929190610572565b6040516020818303038152906040527f07c81217000000000000000000000000000000000000000000000000000000007bffffffffffffffffffffffffffffffffffffffffffffffffffffffff19166020820180517bffffffffffffffffffffffffffffffffffffffffffffffffffffffff83818316178352505050506104a0565b505050565b610400828260405160240161037e929190610542565b6040516020818303038152906040527f319af333000000000000000000000000000000000000000000000000000000007bffffffffffffffffffffffffffffffffffffffffffffffffffffffff19166020820180517bffffffffffffffffffffffffffffffffffffffffffffffffffffffff83818316178352505050506104a0565b5050565b61049c828260405160240161041a9291906105b0565b6040516020818303038152906040527f9710a9d0000000000000000000000000000000000000000000000000000000007bffffffffffffffffffffffffffffffffffffffffffffffffffffffff19166020820180517bffffffffffffffffffffffffffffffffffffffffffffffffffffffff83818316178352505050506104a0565b5050565b60008151905060006a636f6e736f6c652e6c6f679050602083016000808483855afa5050505050565b6104d28161066d565b82525050565b60006104e3826105fb565b6104ed8185610606565b93506104fd8185602086016106a9565b6105068161070b565b840191505092915050565b61051a8161069f565b82525050565b6000602082019050818103600083015261053a81846104d8565b905092915050565b6000604082019050818103600083015261055c81856104d8565b905061056b60208301846104c9565b9392505050565b6000606082019050818103600083015261058c81866104d8565b905061059b60208301856104c9565b6105a86040830184610511565b949350505050565b600060408201905081810360008301526105ca81856104d8565b90506105d96020830184610511565b9392505050565b60006020820190506105f56000830184610511565b92915050565b600081519050919050565b600082825260208201905092915050565b60006106228261069f565b915061062d8361069f565b9250827fffffffffffffffffffffffffffffffffffffffffffffffffffffffffffffffff03821115610662576106616106dc565b5b828201905092915050565b60006106788261067f565b9050919050565b600073ffffffffffffffffffffffffffffffffffffffff82169050919050565b6000819050919050565b60005b838110156106c75780820151818401526020810190506106ac565b838111156106d6576000848401525b50505050565b7f4e487b7100000000000000000000000000000000000000000000000000000000600052601160045260246000fd5b6000601f19601f830116905091905056fe1b5b33326d25731b5b306d20686173201b5b33316d25641b5b306d20746f74616c207761766573a2646970667358221220b9102b1f866c9fedd3e16cbac7f93bf5905bed0b4cfb267294ded0bccc45c79d64736f6c63430008040033596f20796f2c204920616d206120636f6e747261637420616d204920616d20736d617274",
  "linkReferences": {},
  "deployedLinkReferences": {}
}